:03000000020247B2
:0C024700787FE4F6D8FD75816F02028E0E
:10043700051D01010101010522000000000014272C
:1004470000000000000000000000000000000000A5
:0E04570000000000010801050901010101017A
:10046600E5086008E4F5087526018006750801E4CC
:10047600F5267BFF7A047966F56E7F64FE120344E7
:010486002253
:0D0495001204AD120487D2AF1200EB80FB01
:0B04A200EF1FAC0670011E4C70F6222C
:0B04AD00C290C291C292C293C294227E
:03000B000203F0FD
:1003F000C0E0C0F0C083C082C0D075D000C000C0D3
:1004000001C002C003C004C005C006C007758CDC73
:10041000758A001201AD1202D312000ED007D00669
:10042000D005D004D003D002D001D000D0D0D082EB
:07043000D083D0F0D0E032D0
:0E048700438901758CDCE4F58AD2A9D28C225F
:1000EB00E4F56874092568F8E624FE604F046003A4
:1000FB000201A0741D2568F8E660030201A0743BA1
:10010B002568F8760174182568F8E4F6E56825E0AB
:10011B0025E02427F81203D1000000007422256883
:10012B00F876017BFF7A00790385686E7FC87E00C5
:10013B0012034474092568F876028059741D2568EA
:10014B00F8E6B40117743B2568F8E4F674182568D3
:10015B00F8E4F674092568F8760180397418256877
:10016B00F8E66401702FF6E56825E025E02427F812
:10017B001203D100000000743B2568F8760174224D
:10018B002568F876017BFF7A00790385686E7FC856
:10019B007E001203440568E568C394055003020012
:0101AB00EE65
:0101AC002230
:0700030074222FF8E4F6223D
:1002D300E4F56F743B256FF8E6605D7418256FF8DD
:1002E300E67055E56F25E025E02427F81203B9EF02
:1002F3002401FFE43EFEE43DFDE43CFCE56F25E024
:1003030025E02427F81203C5E56F25E025E024271F
:10031300F81203B9E47B607AEAF9F8C31203A87010
:10032300177418256FF87601E56F25E025E024277B
:10033300F81203D100000000056FE56F64057093A8
:010343002297
:10000E00D2B230B212E4F50E0513E513B40A177529
:10001E001D01E4F513800FE4F513050EE50EB40A89
:10002E0005E4F51DF50ED2B330B312E4F50F051449
:10003E00E514B40A17751E01E4F514800FE4F514E7
:10004E00050FE50FB40A05E4F51EF50FD2B430B472
:10005E0012E4F5100515E515B40A17751F01E4F540
:10006E0015800FE4F5150510E510B40A05E4F51F2B
:10007E00F510D2B530B512E4F5110516E516B40A31
:10008E0017752001E4F516800FE4F5160511E5113C
:10009E00B40A05E4F520F511D2B730B712E4F51223
:1000AE000517E517B40A17752101E4F517800FE45B
:1000BE00F5170512E512B40A05E4F521F512E5224D
:1000CE0024FF9290E52324FF9291E52424FF92923F
:0C00DE00E52524FF9293E52624FF929470
:0100EA0022F3
:060344008B6B8A6C896DD1
:10034A00E4FDED75F00AA42440F8E6704CED75F072
:10035A000AA42442F8E4F6ED75F00AA42440F876DB
:10036A0001ED75F00AA42441F8A66EED75F00AA411
:10037A002443F8E4F608F6ED75F00AA42445F8A635
:10038A000608A607AA6CA96DED75F00AA42447F819
:0D039A00A66B08A60208A601220DBD04A551
:0103A7002233
:1001AD00E4F56FE56F75F00AA42440F8E66401707C
:1001BD007CE56F75F00AA42442F8E66401606EE5F3
:1001CD006F75F00AA42443F80806E618700106E6D8
:1001DD00FE08E6FFE56F75F00AA42445F8E6FC0875
:1001ED00E66F7002EC6E7045E56F75F00AA4244061
:1001FD00F8E4F6E56F75F00AA42443F8E4F608F682
:10020D00E56F75F00AA42445F8E4F608F6E56F7578
:10021D00F00AA42441F8E6FFE56F75F00AA424471F
:10022D00F808E6FA08E6F5828A831203EE056FE513
:09023D006FC3940450030201B0E8
:010246002295
:10025300020495E493A3F8E493A34003F68001F228
:1002630008DFF48029E493A3F85407240CC8C333AC
:10027300C4540F4420C8834004F456800146F6DF7B
:10028300E4800B0102040810204080900437E47ED0
:10029300019360BCA3FF543F30E509541FFEE49370
:1002A300A360010ECF54C025E060A840B8E493A337
:1002B300FAE493A3F8E493A3C8C582C8CAC583CA62
:1002C300F0A3C8C582C8CAC583CADFE9DEE780BE1A
:010465000096
:1003A800EB9FF5F0EA9E42F0E99D42F0E89C45F0AB
:0103B8002222
:0C03B900E6FC08E6FD08E6FE08E6FF2270
:0C03C500ECF608EDF608EEF608EFF62264
:1003D100D083D082E493F608740193F608740293F3
:0903E100F608740393F67404732A
:0603EA008A838982E4739E
:00000001FF
