:030000000203F503
:0C03F500787FE4F6D8FD75817802043CA6
:10052900071D01010101010101072400000000006C
:100539000000182B0000000000000000000000006F
:100549000000000000000000000000000117000189
:08055900490101430001080003
:1005620012059B1205AAD29530950F7F707E171245
:1005720005B83095087543018003E4F543D2AF1204
:04058200000E80FBEC
:0B05B800EF1FAC0670011E4C70F62215
:0F059B00C290C291C292C293C294C2B1C29622C0
:03000B000204E507
:1004E500C0E0C0F0C083C082C0D075D000C000C0DD
:1004F50001C002C003C004C005C006C007758CDC7E
:10050500758A0012035B120226D007D006D005D0EB
:1005150004D003D002D001D000D0D0D082D083D077
:04052500F0D0E03200
:0E05AA00438901758CDCE4F58AD2A9D28C223B
:10000E00E5437003020124E54970030200D6E51DA5
:10001E00B4011A752401E51770137BFF7A0079037A
:10002E007577017FE07E2E120481751701E51EB4EF
:10003E00011A752501E51770137BFF7A0079037598
:10004E0077017FE07E2E120481751701E51FB40142
:10005E001A752601E51770137BFF7A007903757701
:10006E00017FE07E2E120481751701E520B4011A7E
:10007E00752701E51770137BFF7A007903757701F9
:10008E007FE07E2E120481751701E521B4011A75E9
:10009E002801E51770137BFF7A0079037577017FCE
:1000AE00E07E2E120481751701E522B4011A75291E
:1000BE0001E51770137BFF7A0079037577017FE0F6
:1000CE007E2E120481751701E5237018F524F5258F
:1000DE00F526F527F528F529F52A120586E5087087
:1000EE0003750801E50864016003020225E51D643D
:1000FE0001601DE51E64016017E51F64016011E5D6
:10010E00206401600BE52164016005E522B4010362
:10011E0002021902021DE54970030201DFE51D709E
:10012E001A752401E51770137BFF7A007903757732
:10013E00017FE07E2E120481751701E51E701A757F
:10014E002501E51770137BFF7A0079037577017F20
:10015E00E07E2E120481751701E51F701A752601B7
:10016E00E51770137BFF7A0079037577017FE07EC8
:10017E002E120481751701E520701A752701E517F7
:10018E0070137BFF7A0079037577017FE07E2E1264
:10019E000481751701E521701A752801E517701392
:1001AE007BFF7A0079037577017FE07E2E12048142
:1001BE00751701E522701A752901E51770137BFF7B
:1001CE007A0079037577017FE07E2E120481751710
:1001DE0001E5237018F524F525F526F527F528F504
:1001EE0029F52A120586E5087003750801E50864ED
:1001FE00017024E51D6014E51E6010E51F600CE51E
:10020E00206008E5216004E5227004E4F54922E44B
:07021E00F517754901F50811
:0102250022B6
:10022600D2B230B212E4F5090510E510B40A17751A
:100236001D01E4F510800FE4F5100509E509B40A7F
:1002460005E4F51DF509D2B330B312E4F50A05113C
:10025600E511B40A17751E01E4F511800FE4F511D6
:10026600050AE50AB40A05E4F51EF50AD2B430B467
:1002760012E4F50B0512E512B40A17751F01E4F531
:1002860012800FE4F512050BE50BB40A05E4F51F21
:10029600F50BD2B530B512E4F50C0513E513B40A27
:1002A60017752001E4F513800FE4F513050CE50C32
:1002B600B40A05E4F520F50CD2B730B712E4F50D13
:1002C6000514E514B40A17752101E4F514800FE44A
:1002D600F514050DE50DB40A05E4F521F50DD2B0CA
:1002E60030B012E4F50E0515E515B40A17752201AE
:1002F600E4F515800FE4F515050EE50EB40A05E4E0
:10030600F522F50ED297309712E4F50F0516E5168D
:10031600B40A17752301E4F516800FE4F516050FE8
:10032600E50FB40A05E4F523F50FE52424FF9290C2
:10033600E52524FF9291E52624FF9292E52724FFE6
:100346009293E52824FF9294E52924FF92B1E52AA9
:0403560024FF929658
:01035A002280
:07000300752A01E4F5172244
:060481008B748A75897678
:10048700E4FDED75F00AA4244AF8E6704CED75F02A
:100497000AA4244CF8E4F6ED75F00AA4244AF87689
:1004A70001ED75F00AA4244BF8A677ED75F00AA4C0
:1004B700244DF8E4F608F6ED75F00AA4244FF8A6E3
:1004C7000608A607AA75A976ED75F00AA42451F8BF
:0D04D700A67408A60208A601220DBD04A50A
:0104E40022F5
:10035B00E4F578E57875F00AA4244AF8E6640170B0
:10036B007CE57875F00AA4244CF8E66401606EE530
:10037B007875F00AA4244DF80806E618700106E615
:10038B00FE08E6FFE57875F00AA4244FF8E6FC08B2
:10039B00E66F7002EC6E7045E57875F00AA4244A9E
:1003AB00F8E4F6E57875F00AA4244DF8E4F608F6BF
:1003BB00E57875F00AA4244FF8E4F608F6E57875AD
:1003CB00F00AA4244BF8E6FFE57875F00AA4245153
:1003DB00F808E6FA08E6F5828A831205C70578E580
:0903EB0078C39404500302035E80
:0103F40022E6
:10058600E4FFEF75F00AA4244AF8E6B40102E4F6A3
:040596000FBF04EEA1
:01059A00223E
:10040100020562E493A3F8E493A34003F68001F2AA
:1004110008DFF48029E493A3F85407240CC8C333FC
:10042100C4540F4420C8834004F456800146F6DFCB
:10043100E4800B0102040810204080900529E47E2D
:10044100019360BCA3FF543F30E509541FFEE493C0
:10045100A360010ECF54C025E060A840B8E493A387
:10046100FAE493A3F8E493A3C8C582C8CAC583CAB2
:10047100F0A3C8C582C8CAC583CADFE9DEE780BE6A
:010561000099
:0605C3008A838982E473C3
:00000001FF
