:0300000002028D6C
:0C028D00787FE4F6D8FD75816F0202D482
:1003C100061B0101010101010621000000000000DE
:1003D10014270000000000000000000000000000E1
:0F03E100000000000000011500014001010800AC
:0D041400120421120406D2AF12011780FB62
:0B042E00EF1FAC0670011E4C70F622A0
:0D042100C290C291C292C293C294C29622B0
:03000B0002037D70
:10037D00C0E0C0F0C083C082C0D075D000C000C046
:10038D0001C002C003C004C005C006C007758CDCE7
:10039D00758A001201F312000ED007D006D005D0D9
:1003AD0004D003D002D001D000D0D0D082D083D0E1
:0403BD00F0D0E0326A
:0E040600438901758CDCE4F58AD2A9D28C22E0
:10011700E54070030201B4E51B701A752101E5156E
:1001270070137BFF7A007903756E017FE07E2E12D4
:100137000319751501E51C701A752201E515701371
:100147007BFF7A007903756E017FE07E2E1203191B
:10015700751501E51D701A752301E51570137BFFF1
:100167007A007903756E017FE07E2E1203197515EB
:1001770001E51E701A752401E51570137BFF7A00DF
:100187007903756E017FE07E2E120319751501E55F
:100197001F701A752501E51570137BFF7A00790327
:1001A700756E017FE07E2E120319751501E520702B
:1001B70016F521F522F523F524F525F5261203F189
:1001C700E5087003750801E5086401701EE51B600A
:1001D7000E600CE51D6008E51E6004E51F7004E471
:0B01E700F54022E4F515754001F50815
:0101F20022EA
:10000E00D2B230B212E4F509050FE50FB40A177536
:10001E001B01E4F50F800FE4F50F0509E509B40A9D
:10002E0005E4F51BF509D2B330B312E4F50A051059
:10003E00E510B40A17751C01E4F510800FE4F510F5
:10004E00050AE50AB40A05E4F51CF50AD2B430B483
:10005E0012E4F50B0511E511B40A17751D01E4F54F
:10006E0011800FE4F511050BE50BB40A05E4F51D3F
:10007E00F50BD2B530B512E4F50C0512E512B40A43
:10008E0017751E01E4F512800FE4F512050CE50C50
:10009E00B40A05E4F51EF50CD2B730B712E4F50D2F
:1000AE000513E513B40A17751F01E4F513800FE469
:1000BE00F513050DE50DB40A05E4F51FF50DD29700
:1000CE00309712E4F50E0514E514B40A17752001E5
:1000DE00E4F514800FE4F514050EE50EB40A05E4FC
:1000EE00F520F50EE52124FF9290E52224FF929152
:1000FE00E52324FF9292E52424FF9293E52524FF25
:08010E009294E52624FF92966D
:0101160022C6
:07000300752601E4F515224A
:060319008B6B8A6C896DFC
:10031F00E4FDED75F00AA42441F8E6704CED75F09C
:10032F000AA42443F8E4F6ED75F00AA42441F87604
:10033F0001ED75F00AA42442F8A66EED75F00AA43B
:10034F002444F8E4F608F6ED75F00AA42446F8A65E
:10035F000608A607AA6CA96DED75F00AA42448F843
:0D036F00A66B08A60208A601220DBD04A57C
:01037C00225E
:1001F300E4F56FE56F75F00AA42441F8E664017035
:100203007CE56F75F00AA42443F8E66401606EE5AB
:100213006F75F00AA42444F80806E618700106E690
:10022300FE08E6FFE56F75F00AA42446F8E6FC082D
:10023300E66F7002EC6E7045E56F75F00AA4244119
:10024300F8E4F6E56F75F00AA42444F8E4F608F63A
:10025300E56F75F00AA42446F8E4F608F6E56F7531
:10026300F00AA42442F8E6FFE56F75F00AA42448D7
:10027300F808E6FA08E6F5828A8312043D056FE57D
:090283006FC3940450030201F65C
:01028C00224F
:1003F100E4FFEF75F00AA42441F8E6B40102E4F643
:040401000FBF04EE37
:0104050022D4
:10029900020414E493A3F8E493A34003F68001F263
:1002A90008DFF48029E493A3F85407240CC8C33366
:1002B900C4540F4420C8834004F456800146F6DF35
:1002C900E4800B01020408102040809003C1E47E01
:1002D900019360BCA3FF543F30E509541FFEE4932A
:1002E900A360010ECF54C025E060A840B8E493A3F1
:1002F900FAE493A3F8E493A3C8C582C8CAC583CA1C
:10030900F0A3C8C582C8CAC583CADFE9DEE780BED3
:0103F000000C
:060439008A838982E4734E
:00000001FF
