:0300000002035E9A
:0C035E00787FE4F6D8FD7581750203A5D8
:1004D800071E0101010101010107250000000000BC
:1004E8000000182C000000000000000000000000C0
:1004F80000000000000000000000000006440101A8
:1005080001010101011D01011601011700014A0045
:10044E00120519120543D29530951C7F707E171236
:10045E00055130952A754A01E4F51EF51FF520F574
:10046E0021F522F5238018E4F54A751E01751F014A
:10047E00752001752101752201752301752401D2A4
:06048E00AF12000E80FB1E
:0B055100EF1FAC0670011E4C70F6227C
:10051900759240E4F591C290C291C292C293C2947D
:05052900C2B1C29622E0
:03000B0002049458
:10049400C0E0C0F0C083C082C0D075D000C000C02E
:1004A40001C002C003C004C005C006C007758CD8D3
:1004B400758AF01202C412018FD007D006D005D07D
:1004C40004D003D002D001D000D0D0D082D083D0C9
:0404D400F0D0E03252
:0E054300438901758CD8758AF0D2A9D28C221A
:10000E00E54A640160030200BAE51D24FD603D244B
:10001E00026003020152E4F56E741E256EF8E6B41A
:10002E00011E7425256EF87601E51770137BFF7A95
:10003E000079037574017FE07E2E1203EA751701B5
:10004E00056EE56EC3940640D0020152E4F56EF5DE
:10005E006E7444256EF8E624FE6016047042741E1B
:10006E00256EF8E6640160387444256EF8760280D9
:10007E002F741E256EF8E6640170257444256EF803
:10008E0076017425256EF87601E51770137BFF7ADD
:10009E000079037574017FE07E2E1203EA75170155
:1000AE00056EE56EC3940640A8020152E51D24FDBF
:1000BE00603B24026003020152E4F56E741E256E4D
:1000CE00F8E6701E7425256EF87601E51770137B21
:1000DE00FF7A0079037574017FE07E2E1203EA75B4
:1000EE001701056EE56EC3940640D18057E4F56E98
:1000FE007444256EF8E624FE601404703E741E25CA
:10010E006EF8E660367444256EF87602802D741E05
:10011E00256EF8E670257444256EF8760174252553
:10012E006EF87601E51770137BFF7A00790375740C
:10013E00017FE07E2E1203EA751701056EE56EC390
:10014E00940640ACE51624FE6027047030E524705A
:10015E002F751602F56E7444256EF87601742525FA
:10016E006EF8E4F6056EE56EB406EBE4F52B0205CB
:10017E002EE524B4010A751601E4F5172275160151
:01018E00224E
:10018F00D2B230B212E4F508050FE50FB40A1775B5
:10019F001E01E4F50F800FE4F50F0508E508B40A1A
:1001AF0005E4F51EF508D2B330B312E4F5090510D6
:1001BF00E510B40A17751F01E4F510800FE4F51070
:1001CF000509E509B40A05E4F51FF509D2B430B401
:1001DF0012E4F50A0511E511B40A17752001E4F5CB
:1001EF0011800FE4F511050AE50AB40A05E4F520BC
:1001FF00F50AD2B530B512E4F50B0512E512B40AC3
:10020F0017752101E4F512800FE4F512050BE50BCC
:10021F00B40A05E4F521F50BD2B730B712E4F50CAB
:10022F000513E513B40A17752201E4F513800FE4E3
:10023F00F513050CE50CB40A05E4F522F50CD2B064
:10024F0030B012E4F50D0514E514B40A1775230147
:10025F00E4F514800FE4F514050DE50DB40A05E47B
:10026F00F523F50DD297309712E4F50E0515E51528
:10027F00B40A17752401E4F515800FE4F515050E82
:10028F00E50EB40A05E4F524F50EE52524FF92905A
:10029F00E52624FF9291E52724FF9292E52824FF7B
:1002AF009293E52924FF9294E52A24FF92B1E52B3E
:0402BF0024FF9296F0
:0102C3002218
:07000300752B01E4F5172243
:0603EA008B718A72897319
:1003F000E4FDED75F00AA42450F8E6704CED75F0BC
:100400000AA42452F8E4F6ED75F00AA42450F87614
:1004100001ED75F00AA42451F8A674ED75F00AA454
:100420002453F8E4F608F6ED75F00AA42455F8A66E
:100430000608A607AA72A973ED75F00AA42457F856
:0D044000A67108A60208A601220DBD03A5A5
:01044D00228C
:1002C400E4F575E57575F00AA42450F8E664017048
:1002D4007CE57575F00AA42452F8E66401606EE5C5
:1002E4007575F00AA42453F80806E618700106E6AA
:1002F400FE08E6FFE57575F00AA42455F8E6FC0847
:10030400E66F7002EC6E7045E57575F00AA4245032
:10031400F8E4F6E57575F00AA42453F8E4F608F653
:10032400E57575F00AA42455F8E4F608F6E5757544
:10033400F00AA42451F8E6FFE57575F00AA42457E1
:10034400F808E6FA08E6F5828A831205600575E581
:0903540075C3940350030202C7B3
:01035D00227D
:10052E00E4FFEF75F00AA42450F8E6B40102E4F6F5
:04053E000FBF03EEFA
:010542002296
:10036A0002044EE493A3F8E493A34003F68001F257
:10037A0008DFF48029E493A3F85407240CC8C33394
:10038A00C4540F4420C8834004F456800146F6DF63
:10039A00E4800B01020408102040809004D8E47E17
:1003AA00019360BCA3FF543F30E509541FFEE49358
:1003BA00A360010ECF54C025E060A840B8E493A31F
:1003CA00FAE493A3F8E493A3C8C582C8CAC583CA4A
:1003DA00F0A3C8C582C8CAC583CADFE9DEE780BE02
:0105180000E2
:06055C008A838982E4732A
:00000001FF
