:0300000002036692
:0C036600787FE4F6D8FD75814E0203ADEF
:1003F200072701010101010101072E000000000091
:100402000000014D0018350000000000000000004F
:1004120000000000000000000000000000000006D4
:100422001C0000000000000522000000000001087E
:080432000105090101010101AE
:0D04E4001204C11204D6D2AF12000E80FB2C
:1004C100759240E4F591C290C291C292C293C294D6
:0504D100C2B1C2962239
:03000B0002043BB1
:10043B00C0E0C0F0C083C082C0D075D000C000C087
:10044B0001C002C003C004C005C006C007758CD82C
:10045B00758AF0754D0112024FD007D006D005D02A
:10046B0004D003D002D001D000D0D0D082D083D022
:04047B00F0D0E032AB
:0E04D600438901758CD8758AF0D2A9D28C2288
:10000E00E4F54EE50824FD70030200F124026003BE
:10001E0002021BE54D700302021BE4F54DE527605D
:10002E0010E528600CE5296008E52A6004E52B70D0
:10003E00057533018003E4F533E4F54E7427254E40
:10004E00F8E67057E54E25E025E02435F8120490C9
:10005E00EF2401FFE43EFEE43DFDE43CFCE54E25CD
:10006E00E025E02435F812049CE54E25E025E02439
:10007E0035F8120490E47BB07A04F9F8C312047FC9
:10008E007033741C254EF87601E54E25E025E024EC
:10009E0035F81204A800000000801AE54E25E02570
:1000AE00E02435F81204A800000000741C254EF858
:1000BE00E66002E4F6054EE54E6405600302004A72
:1000CE00E51C64016017E51D64016011E51E640105
:1000DE00600BE51F64016005E520B4010302021305
:1000EE00020218E4F54E7409254EF8E624FE601D52
:1000FE0004702F7427254EF8E67002801C7422259A
:10010E004EF8E4F67409254EF87602801C74272505
:10011E004EF8E670047422800B7422254EF8E4F635
:10012E0080077409254EF87601054EE54EB405B6E6
:10013E00E54D700302021BE4F54DE52264016017E4
:10014E00E52364016011E5246401600BE52564017B
:10015E006005E526B401057533018003E4F533E44B
:10016E00F54E7422254EF8E664017057E54E25E0F3
:10017E0025E02435F8120490EF2401FFE43EFEE45E
:10018E003DFDE43CFCE54E25E025E02435F8120467
:10019E009CE54E25E025E02435F8120490E47BB072
:1001AE007A04F9F8C312047F7033741C254EF87666
:1001BE0001E54E25E025E02435F81204A8000000E4
:1001CE0000801AE54E25E025E02435F81204A8003B
:1001DE00000000741C254EF8E66002E4F6054EE5BC
:1001EE004E64056003020170E51C64016017E51D95
:1001FE0064016011E51E6401600BE51F640160057A
:10020E00E520B401057534018003E4F534E52D7065
:10021E002FF54E7409254EF87601E4F533E54E259B
:10022E00E025E02435F81204A800000000741C2517
:10023E004EF8E4F6F534750803054EE54EB406D3D4
:01024E00228D
:10024F00D2B230B212E4F50E0515E515B40A1775E2
:10025F002701E4F515800FE4F515050EE50EB40A38
:10026F0005E4F527F50ED2B330B312E4F50F0516FA
:10027F00E516B40A17752801E4F516800FE4F51694
:10028F00050FE50FB40A05E4F528F50FD2B430B425
:10029F0012E4F5100517E517B40A17752901E4F5EF
:1002AF0017800FE4F5170510E510B40A05E4F529DA
:1002BF00F510D2B530B512E4F5110518E518B40AEA
:1002CF0017752A01E4F518800FE4F5180511E511EB
:1002DF00B40A05E4F52AF511D2B730B712E4F512D6
:1002EF000519E519B40A17752B01E4F519800FE408
:1002FF00F5190512E512B40A05E4F52BF512D2B083
:10030F0030B012E4F513051AE51AB40A17752C016B
:10031F00E4F51A800FE4F51A0513E513B40A05E4A2
:10032F00F52CF513D297309712E4F514051BE51B46
:10033F00B40A17752D01E4F51B800FE4F51B0514A6
:10034F00E514B40A05E4F52DF514E53324FF92B155
:06035F00E53424FF929634
:010365002275
:100372000204E4E493A3F8E493A34003F68001F2B9
:1003820008DFF48029E493A3F85407240CC8C3338C
:10039200C4540F4420C8834004F456800146F6DF5B
:1003A200E4800B01020408102040809003F2E47EF6
:1003B200019360BCA3FF543F30E509541FFEE49350
:1003C200A360010ECF54C025E060A840B8E493A317
:1003D200FAE493A3F8E493A3C8C582C8CAC583CA42
:1003E200F0A3C8C582C8CAC583CADFE9DEE780BEFA
:01043A0000C1
:10047F00EB9FF5F0EA9E42F0E99D42F0E89C45F0D3
:01048F00224A
:0C049000E6FC08E6FD08E6FE08E6FF2298
:0C049C00ECF608EDF608EEF608EFF6228C
:1004A800D083D082E493F608740193F6087402931B
:0904B800F608740393F674047352
:00000001FF
