:030000000202C732
:0C02C700787FE4F6D8FD75816F02030E0D
:1003FB00061B0101010101010621000000000000A4
:10040B0014270000000000000000000000000000A6
:0F041B0000000000000001150001400101080071
:0D044E0012045B120440D2AF12000E80FBBE
:0B046800EF1FAC0670011E4C70F62266
:0D045B00C290C291C292C293C294C2962276
:03000B000203B736
:1003B700C0E0C0F0C083C082C0D075D000C000C00C
:1003C70001C002C003C004C005C006C007758CDCAD
:1003D700758A0012022D120124D007D006D005D04D
:1003E70004D003D002D001D000D0D0D082D083D0A7
:0403F700F0D0E03230
:0E044000438901758CDCE4F58AD2A9D28C22A6
:10000E00E54070030200E7E51B701C752101E51544
:10001E0070187BFF7A007903756E017FE07E2E12D9
:10002E0003537515018003E4F521E51C701C752240
:10003E0001E51570187BFF7A007903756E017FE07C
:10004E007E2E1203537515018003E4F522E51D7013
:10005E001C752301E51570187BFF7A007903756E08
:10006E00017FE07E2E1203537515018003E4F52304
:10007E00E51E701C752401E51570187BFF7A00795A
:10008E0003756E017FE07E2E1203537515018003FA
:10009E00E4F524E51F701C752501E51570187BFF2E
:1000AE007A007903756E017FE07E2E12035375156B
:1000BE00018003E4F525E520701C752601E5157019
:1000CE00187BFF7A007903756E017FE07E2E120396
:1000DE00537515018003E4F526E5207016F521F51C
:1000EE0022F523F524F525F52612042BE5087003D9
:1000FE00750801E5086401701CE51B600E600CE5D7
:10010E001D6008E51E6004E51F7004E4F5402275CD
:05011E004001E4F508BA
:0101230022B9
:10012400D2B230B212E4F509050FE50FB40A17751F
:100134001B01E4F50F800FE4F50F0509E509B40A86
:1001440005E4F51BF509D2B330B312E4F50A051042
:10015400E510B40A17751C01E4F510800FE4F510DE
:10016400050AE50AB40A05E4F51CF50AD2B430B46C
:1001740012E4F50B0511E511B40A17751D01E4F538
:1001840011800FE4F511050BE50BB40A05E4F51D28
:10019400F50BD2B530B512E4F50C0512E512B40A2C
:1001A40017751E01E4F512800FE4F512050CE50C39
:1001B400B40A05E4F51EF50CD2B730B712E4F50D18
:1001C4000513E513B40A17751F01E4F513800FE452
:1001D400F513050DE50DB40A05E4F51FF50DD297E9
:1001E400309712E4F50E0514E514B40A17752001CE
:1001F400E4F514800FE4F514050EE50EB40A05E4E5
:10020400F520F50EE52124FF9290E52224FF92913A
:10021400E52324FF9292E52424FF9293E52524FF0D
:080224009294E52624FF929656
:01022C0022AF
:06000300E4F526F51522CC
:060353008B6B8A6C896DC2
:10035900E4FDED75F00AA42441F8E6704CED75F062
:100369000AA42443F8E4F6ED75F00AA42441F876CA
:1003790001ED75F00AA42442F8A66EED75F00AA401
:100389002444F8E4F608F6ED75F00AA42446F8A624
:100399000608A607AA6CA96DED75F00AA42448F809
:0D03A900A66B08A60208A601220DBD04A542
:0103B6002224
:10022D00E4F56FE56F75F00AA42441F8E6640170FA
:10023D007CE56F75F00AA42443F8E66401606EE571
:10024D006F75F00AA42444F80806E618700106E656
:10025D00FE08E6FFE56F75F00AA42446F8E6FC08F3
:10026D00E66F7002EC6E7045E56F75F00AA42441DF
:10027D00F8E4F6E56F75F00AA42444F8E4F608F600
:10028D00E56F75F00AA42446F8E4F608F6E56F75F7
:10029D00F00AA42442F8E6FFE56F75F00AA424489D
:1002AD00F808E6FA08E6F5828A83120477056FE509
:0902BD006FC394045003020230E7
:0102C6002215
:10042B00E4FFEF75F00AA42441F8E6B40102E4F608
:04043B000FBF04EEFD
:01043F00229A
:1002D30002044EE493A3F8E493A34003F68001F2EF
:1002E30008DFF48029E493A3F85407240CC8C3332C
:1002F300C4540F4420C8834004F456800146F6DFFB
:10030300E4800B01020408102040809003FBE47E8C
:10031300019360BCA3FF543F30E509541FFEE493EF
:10032300A360010ECF54C025E060A840B8E493A3B6
:10033300FAE493A3F8E493A3C8C582C8CAC583CAE1
:10034300F0A3C8C582C8CAC583CADFE9DEE780BE99
:01042A0000D1
:060473008A838982E47314
:00000001FF
